{
  "_format": "hh-sol-artifact-1",
  "contractName": "TimeTickets",
  "sourceName": "contracts/TimeTickets.sol",
  "abi": [
    {
      "inputs": [
        {
          "internalType": "uint256",
          "name": "_ticketPrice",
          "type": "uint256"
        },
        {
          "internalType": "uint256",
          "name": "_maxTickets",
          "type": "uint256"
        }
      ],
      "stateMutability": "nonpayable",
      "type": "constructor"
    },
    {
      "anonymous": false,
      "inputs": [
        {
          "indexed": false,
          "internalType": "uint256",
          "name": "newPrice",
          "type": "uint256"
        }
      ],
      "name": "PriceChanged",
      "type": "event"
    },
    {
      "anonymous": false,
      "inputs": [
        {
          "indexed": false,
          "internalType": "address",
          "name": "buyer",
          "type": "address"
        },
        {
          "indexed": false,
          "internalType": "uint256",
          "name": "amount",
          "type": "uint256"
        }
      ],
      "name": "TicketPurchased",
      "type": "event"
    },
    {
      "inputs": [
        {
          "internalType": "uint256",
          "name": "amount",
          "type": "uint256"
        }
      ],
      "name": "buyTicket",
      "outputs": [],
      "stateMutability": "payable",
      "type": "function"
    },
    {
      "inputs": [
        {
          "internalType": "address",
          "name": "user",
          "type": "address"
        }
      ],
      "name": "getTicketBalance",
      "outputs": [
        {
          "internalType": "uint256",
          "name": "",
          "type": "uint256"
        }
      ],
      "stateMutability": "view",
      "type": "function"
    },
    {
      "inputs": [],
      "name": "maxTickets",
      "outputs": [
        {
          "internalType": "uint256",
          "name": "",
          "type": "uint256"
        }
      ],
      "stateMutability": "view",
      "type": "function"
    },
    {
      "inputs": [],
      "name": "owner",
      "outputs": [
        {
          "internalType": "address",
          "name": "",
          "type": "address"
        }
      ],
      "stateMutability": "view",
      "type": "function"
    },
    {
      "inputs": [
        {
          "internalType": "uint256",
          "name": "_newPrice",
          "type": "uint256"
        }
      ],
      "name": "setTicketPrice",
      "outputs": [],
      "stateMutability": "nonpayable",
      "type": "function"
    },
    {
      "inputs": [],
      "name": "ticketPrice",
      "outputs": [
        {
          "internalType": "uint256",
          "name": "",
          "type": "uint256"
        }
      ],
      "stateMutability": "view",
      "type": "function"
    },
    {
      "inputs": [
        {
          "internalType": "address",
          "name": "",
          "type": "address"
        }
      ],
      "name": "tickets",
      "outputs": [
        {
          "internalType": "uint256",
          "name": "",
          "type": "uint256"
        }
      ],
      "stateMutability": "view",
      "type": "function"
    },
    {
      "inputs": [],
      "name": "withdrawFunds",
      "outputs": [],
      "stateMutability": "nonpayable",
      "type": "function"
    }
  ],
  "bytecode": "0x608060405234801561001057600080fd5b50604051610a50380380610a50833981810160405281019061003291906100c2565b336000806101000a81548173ffffffffffffffffffffffffffffffffffffffff021916908373ffffffffffffffffffffffffffffffffffffffff16021790555081600181905550806002819055505050610102565b600080fd5b6000819050919050565b61009f8161008c565b81146100aa57600080fd5b50565b6000815190506100bc81610096565b92915050565b600080604083850312156100d9576100d8610087565b5b60006100e7858286016100ad565b92505060206100f8858286016100ad565b9150509250929050565b61093f806101116000396000f3fe60806040526004361061007b5760003560e01c80636dcbf2a31161004e5780636dcbf2a3146101075780638da5cb5b146101445780639b8947031461016f578063e5da378f1461019a5761007b565b80631209b1f61461008057806315981650146100ab57806324600fc3146100d457806367dd74ca146100eb575b600080fd5b34801561008c57600080fd5b506100956101d7565b6040516100a291906105b8565b60405180910390f35b3480156100b757600080fd5b506100d260048036038101906100cd9190610604565b6101dd565b005b3480156100e057600080fd5b506100e96102ac565b005b61010560048036038101906101009190610604565b6103a3565b005b34801561011357600080fd5b5061012e6004803603810190610129919061068f565b610514565b60405161013b91906105b8565b60405180910390f35b34801561015057600080fd5b5061015961052c565b60405161016691906106cb565b60405180910390f35b34801561017b57600080fd5b50610184610550565b60405161019191906105b8565b60405180910390f35b3480156101a657600080fd5b506101c160048036038101906101bc919061068f565b610556565b6040516101ce91906105b8565b60405180910390f35b60015481565b60008054906101000a900473ffffffffffffffffffffffffffffffffffffffff1673ffffffffffffffffffffffffffffffffffffffff163373ffffffffffffffffffffffffffffffffffffffff161461026b576040517f08c379a000000000000000000000000000000000000000000000000000000000815260040161026290610743565b60405180910390fd5b806001819055507fa6dc15bdb68da224c66db4b3838d9a2b205138e8cff6774e57d0af91e196d622816040516102a191906105b8565b60405180910390a150565b60008054906101000a900473ffffffffffffffffffffffffffffffffffffffff1673ffffffffffffffffffffffffffffffffffffffff163373ffffffffffffffffffffffffffffffffffffffff161461033a576040517f08c379a000000000000000000000000000000000000000000000000000000000815260040161033190610743565b60405180910390fd5b60008054906101000a900473ffffffffffffffffffffffffffffffffffffffff1673ffffffffffffffffffffffffffffffffffffffff166108fc479081150290604051600060405180830381858888f193505050501580156103a0573d6000803e3d6000fd5b50565b806001546103b19190610792565b3410156103f3576040517f08c379a00000000000000000000000000000000000000000000000000000000081526004016103ea90610820565b60405180910390fd5b60025481600360003373ffffffffffffffffffffffffffffffffffffffff1673ffffffffffffffffffffffffffffffffffffffff168152602001908152602001600020546104419190610840565b1115610482576040517f08c379a0000000000000000000000000000000000000000000000000000000008152600401610479906108c0565b60405180910390fd5b80600360003373ffffffffffffffffffffffffffffffffffffffff1673ffffffffffffffffffffffffffffffffffffffff16815260200190815260200160002060008282546104d19190610840565b925050819055507f0668f5b446eb814fe35b3206f43f14bd8567ba04ddaf7a3ee56516929ab22ccb33826040516105099291906108e0565b60405180910390a150565b60036020528060005260406000206000915090505481565b60008054906101000a900473ffffffffffffffffffffffffffffffffffffffff1681565b60025481565b6000600360008373ffffffffffffffffffffffffffffffffffffffff1673ffffffffffffffffffffffffffffffffffffffff168152602001908152602001600020549050919050565b6000819050919050565b6105b28161059f565b82525050565b60006020820190506105cd60008301846105a9565b92915050565b600080fd5b6105e18161059f565b81146105ec57600080fd5b50565b6000813590506105fe816105d8565b92915050565b60006020828403121561061a576106196105d3565b5b6000610628848285016105ef565b91505092915050565b600073ffffffffffffffffffffffffffffffffffffffff82169050919050565b600061065c82610631565b9050919050565b61066c81610651565b811461067757600080fd5b50565b60008135905061068981610663565b92915050565b6000602082840312156106a5576106a46105d3565b5b60006106b38482850161067a565b91505092915050565b6106c581610651565b82525050565b60006020820190506106e060008301846106bc565b92915050565b600082825260208201905092915050565b7f4e6f7420617574686f72697a6564000000000000000000000000000000000000600082015250565b600061072d600e836106e6565b9150610738826106f7565b602082019050919050565b6000602082019050818103600083015261075c81610720565b9050919050565b7f4e487b7100000000000000000000000000000000000000000000000000000000600052601160045260246000fd5b600061079d8261059f565b91506107a88361059f565b92508282026107b68161059f565b915082820484148315176107cd576107cc610763565b5b5092915050565b7f496e73756666696369656e74207061796d656e74000000000000000000000000600082015250565b600061080a6014836106e6565b9150610815826107d4565b602082019050919050565b60006020820190508181036000830152610839816107fd565b9050919050565b600061084b8261059f565b91506108568361059f565b925082820190508082111561086e5761086d610763565b5b92915050565b7f45786365656473206d6178207469636b65747300000000000000000000000000600082015250565b60006108aa6013836106e6565b91506108b582610874565b602082019050919050565b600060208201905081810360008301526108d98161089d565b9050919050565b60006040820190506108f560008301856106bc565b61090260208301846105a9565b939250505056fea2646970667358221220fe7f0813834fb8d4bb5e9f60bde058d915c4e603f4eb8822b67abcb22423ccc764736f6c634300081c0033",
  "linkReferences": {},
  "deployedLinkReferences": {}
}